:020000040800F2
:10000000B80700204D020008B52E0008E1240008C2
:10001000B12E000843040008253900080000000044
:10002000000000000000000000000000DB320008BB
:10003000470400080000000061320008DD320008BB
:1000400067020008670200086702000867020008EC
:1000500067020008670200086702000867020008DC
:1000600067020008670200086702000867020008CC
:1000700067020008670200086702000867020008BC
:1000800067020008670200086702000867020008AC
:10009000670200086702000867020008670200089C
:1000A000BD33000867020008670200086702000805
:1000B000670200086702000867020008670200087C
:1000C000670200086702000867020008670200086C
:1000D000670200086702000867020008670200085C
:1000E000670200086702000867020008670200084C
:1000F000670200086702000867020008670200083C
:10010000670200086702000867020008670200082B
:10011000670200086702000867020008670200081B
:10012000670200086702000867020008670200080B
:1001300067020008670200086702000867020008FB
:1001400067020008670200086702000867020008EB
:1001500067020008670200086702000867020008DB
:1001600067020008670200086702000867020008CB
:10017000670200086702000867020008000000002C
:1001800067020008670200086702000867020008AB
:10019000670200086702000867020008670200089B
:1001A00067020008670200086702000800F002F812
:1001B00000F03CF80AA090E8000C82448344AAF1C5
:1001C0000107DA4501D100F031F8AFF2090EBAE8C3
:1001D0000F0013F0010F18BFFB1A43F0010318477B
:1001E0008C480000AC480000103A24BF78C878C1A1
:1001F000FAD8520724BF30C830C144BF04680C602D
:10020000704700000023002400250026103A28BF74
:1002100078C1FBD8520728BF30C148BF0B60704778
:100220001FB504F00CFC1FBD10B510BD00F0CFF8D9
:100230001146FFF7F5FF03F01FFC00F0EDF803B4E3
:10024000FFF7F2FF03BC00F0F5F800000948804713
:1002500009480047FEE7FEE7FEE7FEE7FEE7FEE7A8
:10026000FEE7FEE7FEE7FEE704480549054A064BC0
:1002700070470000A9330008AD010008B801002054
:10028000B8070020B8030020B803002053EA020C8E
:1002900000F069802DE9F04B4FF00006002B1FBFE6
:1002A000B3FA83F503FA05F424FA05F65E4012BFAB
:1002B0001643B2FA82F502FA05F4C5F120051EBF15
:1002C00022FA05FC44EA0C04203556EA044C4FEAB5
:1002D000144418BF641C4FF000084FF0000990420E
:1002E00071EB030C39D3002919BFB1FA81F701FA78
:1002F00007F6B0FA80F700FA07F6C7F120071EBF2D
:1003000020FA07FC46EA0C062037B6FBF4FCA7EB04
:100310000507103F07F01F0BCBF120060CFA0BFB73
:100320002CFA06F644BFB3460026202FA4BF5E4633
:100330004FF0000B5BEA060C08BF4FF0010B19EB06
:100340000B09ABFB027C48EB0608C01B06FB02CC8A
:100350000BFB03CC71EB0C01C1E70B460246414697
:100360004846BDE8F08B13B54FF000004FF0000198
:10037000AFF30080BDE81C4070474FF0000200B5AD
:10038000134694469646203922BFA0E80C50A0E8B8
:100390000C50B1F12001BFF4F7AF090728BFA0E866
:1003A0000C5048BF0CC05DF804EB890028BF40F832
:1003B000042B08BF704748BF20F8022B11F0804F74
:1003C00018BF00F8012B704770477047704775469B
:1003D00000F02CF8AE4605006946534620F00700B1
:1003E000854618B020B5FFF73FFFBDE820404FF02D
:1003F00000064FF000074FF000084FF0000B21F00F
:100400000701AC46ACE8C009ACE8C009ACE8C009DB
:10041000ACE8C0098D46704710B50446AFF30080C4
:100420002046BDE81040FFF70ABF000000487047B3
:100430005801002001491820ABBEFEE7260002004B
:10044000704700BFFEE7704772B600BFFEE70000CE
:1004500070B5044600F01EF906462546681C10B12A
:1004600004480078054400BF00F014F9801BA8423E
:10047000FAD370BD0C000020F8B502460B460025EB
:10048000002400200021E0E0012606FA01F51E68A4
:1004900006EA0504AC4274D11E7906F00306012E6B
:1004A00004D01E7906F00306022E13D190684F0087
:1004B0000326BE40B0434F00DE68BE40304390602C
:1004C000506801268E40B0431E79C6F300168E4058
:1004D000304350601E7906F00306032E09D0D06821
:1004E0004F000326BE40B0434F009E68BE403043DD
:1004F000D0601E7906F00306022E13D1CF0802F158
:10050000200656F827004E07F70E0F26BE40B043D0
:100510004F07FF0E1E69BE403043CF0802F1200690
:1005200046F8270010684F000326BE40B0431E79EE
:1005300006F003064F00BE40304310605E6806F4CC
:100540004036002E1DD000BF00260096414E366872
:1005500046F480463F4F3E603E46366806F480468D
:10056000009600BF00BF3C4E8F0856F827008E074C
:10057000370F0F26BE40B043384EB24202D100269C
:100580002EE061E0364EB24201D1012628E0354E20
:10059000B24201D1022623E0334EB24201D10326FA
:1005A0001EE0324EB24201D1042619E0304EB24272
:1005B00001D1052614E02F4EB24201D106260FE0EC
:1005C0002D4EB24201D107260AE02C4EB24201D193
:1005D000082605E02A4EB24201D1092600E00A268B
:1005E0008F073F0FBE4030431B4E8F0846F8270051
:1005F000244E3068A0435E6806F4801606B120439E
:10060000204E3060361D3068A0435E6806F4001648
:1006100006B120431B4E361D30601A4E361F30681F
:10062000A0435E6806F4003606B12043154E361F1F
:100630003060361F3068A0435E6806F4803606B12D
:100640002043104E083E3060491C1029FFF41CAFB7
:10065000F8BD000044380240083801400000024064
:100660000004024000080240000C0240001002405A
:100670000014024000180240001C0240002002400A
:1006800000240240083C01400AB1816101E00B04F2
:100690008361704701480068704700000400002033
:1006A000024692F83D0020281ED1242082F83D0009
:1006B0001068006820F00100136818601068406A34
:1006C00020F01000136858621068406A08431368ED
:1006D00058621068006840F001001368186020201C
:1006E00082F83D00002070470220FCE710B502466A
:1006F0000B46002192F83D0020281DD1242082F8CD
:100700003D001068006820F0010014682060106847
:10071000406A81B221F00F0141EA030081B2106802
:1007200041621068006840F00100146820602020D9
:1007300082F83D00002010BD0220FCE770B50446A1
:100740000CB9012070BD94F83D0028B9002084F850
:100750003C00204600F0BEFB242084F83D002068C9
:10076000006820F00100216808602068006840F4FB
:100770000040216808602068006820F4004021687B
:10078000086000F051FF05465C496068884206D861
:100790005B48854201D2012007E0002005E059486E
:1007A000854201D2012000E00020012800D1C9E7E4
:1007B0005548B5FBF0F62068406820F03F00304314
:1007C000216848604D496068884201D8701C07E084
:1007D0004FF4967070434FF47A71B0FBF1F0401C07
:1007E0002168096A21F03F010843216808624349F2
:1007F0006068884214D8681E61684900B0FBF1F057
:10080000401CC0F30B00042801D204203DE0681E08
:1008100061684900B0FBF1F0401CC0F30B0034E00C
:10082000A06838B9681E616801EB4101B0FBF1F0C6
:10083000401C0AE0681E616801EBC10202EB011175
:10084000B0FBF1F0401C40F48040C0F30B0008B94D
:1008500001201AE0A06848B9681E616801EB4101F7
:10086000B0FBF1F0401CC0F30B000CE0681E6168A7
:1008700001EBC10202EB0111B0FBF1F0401CC0F32F
:100880000B0040F4804040F400402168C9694CF6F8
:10089000FF72914308432168C861D4E90701084306
:1008A0002168096821F0C001084321680860D4E983
:1008B000031008432168896848F2FF3291430843D6
:1008C00021688860D4E9050108432168C96821F0DE
:1008D000FF0108432168C8602068006840F00100FB
:1008E0002168086000202064202084F83D0000205A
:1008F000206384F83E0000BF24E70000A0860100CA
:1009000080841E0000093D0040420F002DE9F8439D
:100910000446894616461F46DDF82080FFF7BAFEDA
:10092000054694F83D0020287ED119230122514923
:100930002046009501F0A4FF10B10220BDE8F88325
:1009400000BF94F83C00012801D10220F6E7012005
:1009500084F83C0000BF2068006800F0010028B95E
:100960002068006840F00100216808602068006885
:1009700020F4006021680860212084F83D001020E8
:1009800084F83E000020206466626785608D2085C3
:100990003948E0622B4642464946204601F0C2FDF6
:1009A00008B10120CAE700BF00200090206840691C
:1009B000009020688069009000BF00BF44E02A4694
:1009C0004146204602F041F850B1206C042805D180
:1009D0002068006840F40070216808600120ADE7DD
:1009E000606A007821680861606A401C6062608DFE
:1009F000401E6085208D401E208520684069C0F320
:100A0000800070B1208D60B1606A00782168086153
:100A1000606A401C6062608D401E6085208D401EB3
:100A200020852A46414600E022E0204601F0FAFEF9
:100A300050B1206C042805D12068006840F4007093
:100A400021680860012079E7208D0028B7D120684F
:100A5000006840F4007021680860202084F83D00A0
:100A6000002084F83E0000BF84F83C0000BF65E72A
:100A7000022063E7020010000000FFFF2DE9FC5F89
:100A800004460F4690469946DDE90CAB0E9EFFF7F3
:100A900001FE054694F83D00202870D1192301225B
:100AA000B0492046009501F0EBFE10B10220BDE8F0
:100AB000FC9F00BF94F83C00012801D10220F6E71A
:100AC000012084F83C0000BF2068006800F00100AD
:100AD00028B92068006840F001002168086020689B
:100AE000006820F4006021680860222084F83D003E
:100AF000402084F83E0000202064C4F824A0A4F81C
:100B00002AB0608D20859848E0624B4642463946BF
:100B10002046CDE9006501F065FD08B10120C6E77A
:100B2000208D88B900BF00200190206840690190A5
:100B300020688069019000BF00BF2068006840F411
:100B400000702168086040E0208D012818D12068DD
:100B5000006820F480602168086000BF00200190D8
:100B600020684069019020688069019000BF00BF43
:100B70002068006840F400702168086025E0EFE01C
:100B8000208D022816D12068006820F4806021683A
:100B900008602068006840F400602168086000BFB9
:100BA00000200190206840690190206880690190D0
:100BB00000BF0AE000BF002001902068406901905A
:100BC00020688069019000BF00BFBAE0208D032833
:100BD0007ED8208D012815D12A463146204601F0C5
:100BE000F4FE08B1012062E720680069616A0870BC
:100BF000606A401C6062208D401E2085608D401E12
:100C000060859EE0208D02282AD133460022574974
:100C10002046009501F034FE08B1012047E7206826
:100C2000006840F400702168086020680069616A0B
:100C30000870606A401C6062208D401E2085608DB7
:100C4000401E608520680069616A0870606A401C07
:100C50006062208D401E2085608D401E608570E0A2
:100C60003346002241492046009501F009FE08B1B3
:100C700001201CE72068006820F48060216808607B
:100C800020680069616A0870606A401C6062208D9B
:100C9000401E2085608D401E60853346002233490A
:100CA0002046009501F0ECFD08B10120FFE6206828
:100CB000006840F400702168086020680069616A7B
:100CC0000870606A401C6062208D401E208500E034
:100CD00010E0608D401E608520680069616A0870C0
:100CE000606A401C6062208D401E2085608D401E21
:100CF000608526E02A463146204601F066FE08B1AE
:100D00000120D4E620680069616A0870606A401CAE
:100D10006062208D401E2085608D401E60852068A9
:100D20004069C0F3800060B120680069616A0870A2
:100D3000606A401C6062208D401E2085608D401ED0
:100D40006085208D00287FF441AF202084F83D008D
:100D5000002084F83E0000BF84F83C0000BFA6E6F7
:100D60000220A4E6020010000000FFFF04000100C2
:100D70002DE9FC5F04460F4690469946DDE90CAB31
:100D80000E9EFFF787FC054694F83D0020287DD194
:100D9000192301224D492046009501F071FD10B143
:100DA0000220BDE8FC9F00BF94F83C00012801D15F
:100DB0000220F6E7012084F83C0000BF20680068AC
:100DC00000F0010028B92068006840F001002168A7
:100DD00008602068006820F4006021680860212015
:100DE00084F83D00402084F83E0000202064C4F8D0
:100DF00024A0A4F82AB0608D20853548E0624B46D7
:100E0000424639462046CDE9006501F09BFC08B119
:100E10000120C6E731E02A463146204601F015FEA2
:100E200050B1206C042805D12068006840F400709F
:100E3000216808600120B4E7606A007821680861D1
:100E4000606A401C6062208D401E2085608D401EBF
:100E5000608520684069C0F3800070B1208D60B16A
:100E6000606A007821680861606A401C6062208DB9
:100E7000401E2085608D401E6085208D0028CAD1CF
:100E80002A463146204601F0CDFC00E01CE050B17E
:100E9000206C042805D12068006840F400702168A7
:100EA000086001207DE72068006840F40070216838
:100EB0000860202084F83D00002084F83E0000BF38
:100EC00084F83C0000BF6CE702206AE702001000D3
:100ED0000000FFFF10B586B00446142101A8FFF7FB
:100EE0004CFA1B49206888422FD100BF0020009097
:100EF0001848006840F0200016490860084600685D
:100F000000F02000009000BF00BF032001901220DD
:100F1000029000200390032004900420059001A972
:100F20000D48FFF7A9FA00BF0020009009481030D3
:100F3000006840F4800007491031086008460068E6
:100F400000F48000009000BF00BF06B010BD00009C
:100F50000058004030380240001402400348006846
:100F600003490978084401490860704704000020DB
:100F70000C00002010B50D48006840F400700B49CB
:100F800008600846006840F4806008600846006811
:100F900040F480700860032000F0A2F8002000F008
:100FA00007F800F02BF8002010BD0000003C0240C4
:100FB00070B504460E4800784FF47A71B1FBF0F03A
:100FC0000C490968B1FBF0F5284600F080FE08B135
:100FD000012070BD102C07D200222146501E00F0C7
:100FE00041F80548046001E00120F2E70020F0E745
:100FF0000C000020100000200800002008B500BFF1
:10100000002000900E48006840F480400C490860C1
:101010000846006800F48040009000BF00BF00BF99
:1010200000200090081F006840F08050091F0860F1
:101030000846006800F08050009000BF00BF08BD67
:101040004438024001460846002809DB00F01F032F
:1010500001229A4043099B0003F1E023C3F80021D9
:1010600000BF70472DE9F05F80460D461646002709
:1010700002F05AFC074639462A46334601F007007B
:10108000C0F1070ABAF1040F02D94FF0040A01E0D7
:10109000C0F1070AD14600F1040ABAF1070F02D2E3
:1010A0004FF0000A01E0A0F1030AD4464FF0010A14
:1010B0000AFA09FAAAF1010A0AEA020A0AFA0CFA79
:1010C0004FF0010B0BFA0CFBABF1010B0BEA030B1E
:1010D0004AEA0B042146404602F02EFCBDE8F09F90
:1010E00000BF00F00702064B19684FF6FF031940D6
:1010F000044B0B4343EA0221014B196000BF7047C8
:101100000CED00E00000FA0538B5002400BF002017
:1011100000901D48006840F080501B490860084658
:10112000006800F08050009000BF00BF0120174908
:101130000864FFF7AFFA044607E0FFF7ABFA001BBD
:10114000B0F57A7F01D9032038BD1148406800F41A
:101150008030B0F5803FF0D101200C494864FFF7A2
:1011600099FA044607E0FFF795FA001BB0F57A7F7D
:1011700001D90320E8E70648406800F40030B0F5E4
:10118000003FF0D10020DFE74038024000000E426F
:1011900000700040F8B5044600250026207800F0D5
:1011A000010048B9207800F00200022804D020781D
:1011B00000F04000402862D10020B1498866FFF766
:1011C00069FA054606E0FFF765FA401B022801D9D7
:1011D0000320F8BDAB480068C0F3C0600028F2D11E
:1011E000207800F0010038B160688101207A41EA7E
:1011F0000070A44984310860207800F002000228C1
:1012000019D1A04884300068C0F30276606881017B
:10121000207B41EA006040EA06709A498431086008
:1012200098488C30006820F01F00E169491E08438F
:1012300094498C310860207800F0400040280AD1A1
:1012400060688101207B41EA0061207A41EA0070F8
:101250008C4984310860012089498866FFF71AFAB1
:10126000054606E0FFF716FA401B022801D90320C5
:10127000AFE784480068C0F3C0600028F2D020784F
:1012800000F00400042804D0207800F008000828AA
:1012900063D100207A490867FFF7FCF9054606E0AC
:1012A000FFF7F8F9401B022801D9032091E77548A0
:1012B0000068C0F340700028F2D1207800F00400EC
:1012C000042819D16F4888300068C0F3027620697D
:1012D0008101207D41EA006040EA06706949883159
:1012E0000860081D006820F4F851206A401E41EA99
:1012F000002064498C310860207800F0080008283C
:1013000017D1604888300068C0F303662069800107
:1013100040EA0661207E41EA00705A49883108603F
:10132000081D006820F44030616A084355498C313B
:101330000860012052490867FFF7ACF9054606E04E
:10134000FFF7A8F9401B022801D9032041E74D48C7
:101350000068C0F340700028F2D0207800F0200030
:1013600020287DD100BF0020009046484030006812
:1013700040F080504349403108600846006800F062
:101380008050009000BF00BF3F48006840F480706C
:101390003D490860FFF77EF9054606E0FFF77AF958
:1013A000401B022801D9032013E73748006800F4E6
:1013B00080700028F2D033487030006800F4407626
:1013C0004EB3208D00F44070B04224D02D487030D0
:1013D000006820F4407601202C4908600020086055
:1013E000284870300660006800F0010098B1FFF7EF
:1013F00051F9054608E0FFF74DF9401B41F28831ED
:10140000884201D90320E4E61E4870300068C0F32A
:1014100040000028EFD000BF208D00F44070B0F5F0
:10142000407F0CD117480830006820F4F810184AA3
:10143000A16A1140084313490831086007E01148C8
:101440000830006820F4F8100E49083108600D4893
:1014500070300068218DC1F30B010843094900E099
:1014600002E07031086000BF207800F01000102802
:1014700003D194F82C00074908600020A9E6000079
:10148000000047420038024000700040400E4742D2
:10149000FFFCFF0FE011474270B504460D460CB942
:1014A000012070BD5848006800F00F00A84209D222
:1014B00055490D700846006800F00F00A84201D0A1
:1014C0000120EEE7207800F0020002281DD12078EC
:1014D00000F00400042805D14C48006840F4E050B6
:1014E0004A490860207800F00800082805D14748DC
:1014F000006840F46040454908604448006820F0B6
:10150000F000A168084341490860207800F001001C
:10151000A8B36068012807D13C4808380068C0F3C8
:101520004040B8B90120BCE76068022802D060687A
:10153000032807D1354808380068C0F3406048B92F
:101540000120AEE7314808380068C0F3400008B910
:101550000120A6E72D48006820F0030061680843D9
:101560002A490860FFF796F8064609E0FFF792F867
:10157000801B41F28831884202D9032091E707E0BD
:101580002248006800F00C006168B0EB810FEDD1DB
:101590001D48006800F00F00A84209D91A490D70D3
:1015A0000846006800F00F00A84201D0012078E74B
:1015B000207800F00400042807D11448006820F4C3
:1015C000E050E168084311490860207800F0080005
:1015D000082808D10D48006820F46040216940EADD
:1015E000C1000A49086000F03FF808490968C1F3E2
:1015F0000311074A515CC840064908600648006864
:10160000FFF7D6FC00204CE7003C024008380240BF
:10161000524A00081000002008000020014800681D
:10162000704700001000002000B5FFF7F7FF0449E5
:101630000968C1F38221034A515CC84000BD000023
:1016400008380240624A000800B5FFF7E7FF044986
:101650000968C1F34231034A515CC84000BD000033
:1016600008380240624A00082DE9F04700240025AE
:101670000026A1462548006800F00C0020B104288F
:1016800005D008283AD105E0DFF8849039E0DFF88A
:10169000849036E01D48001F006800F03F041B489E
:1016A000001F006800F4800078B11A481749091F2C
:1016B0000968C1F38811A0FB01700146224600238E
:1016C0003846FEF7E3FD05460EE011480F49091FB5
:1016D0000968C1F38811A0FB01700146224600236E
:1016E0003846FEF7D3FD05460848001F0068C0F3E2
:1016F0000140401C4600B5FBF6F902E0DFF810900F
:1017000000BF00BF4846BDE8F0870000083802402F
:101710000024F40000127A00F8B504460CB9012048
:10172000F8BD207800F00100002874D0F948006866
:1017300000F00C0004280DD0F648006800F00C0002
:10174000082813D1F348001F006800F48000B0F5AA
:10175000800F0BD1EF4808380068C0F340400028E4
:1017600059D06068002856D10120D9E700BF6068D1
:10177000B0F5803F08D1E7480838006840F4803071
:10178000E449083908601EE06068B0F5A02F0DD16B
:10179000E0480838006840F48020DE4908390860D5
:1017A0000846006840F4803008600CE0D9480838EA
:1017B000006820F48030D74908390860084600687E
:1017C00020F48020086000BF606890B1FEF762FFDF
:1017D000054606E0FEF75EFF401B642801D90320A2
:1017E0009EE7CC4808380068C0F340400028F1D09C
:1017F00011E0FEF74FFF054606E0FEF74BFF401BEA
:10180000642801D903208BE7C24808380068C0F378
:1018100040400028F1D1207800F0020002285FD17A
:10182000BC48006800F00C0058B1BA48006800F0ED
:101830000C0008281CD1B748001F006800F4800085
:10184000B0B9B44808380068C0F3400020B1E0687F
:10185000012801D0012063E7AE480838006820F075
:10186000F800216940EAC100AA490839086037E058
:10187000E06800B30120A8490860FEF70BFF0546A9
:1018800006E0FEF707FF401B022801D9032047E7C7
:10189000A04808380068C0F340000028F1D09D48F7
:1018A0000838006820F0F800216940EAC100994931
:1018B0000839086014E0002097490860FEF7EAFE46
:1018C000054606E0FEF7E6FE401B022801D903208C
:1018D00026E7904808380068C0F340000028F1D19E
:1018E000207800F0080008282CD16069A8B10120F8
:1018F0008A490860FEF7CEFE054606E0FEF7CAFEFE
:10190000401B022801D903200AE782486C30006896
:10191000C0F340000028F1D014E000207F490860A7
:10192000FEF7B8FE054606E0FEF7B4FE401B0228AF
:1019300001D90320F4E677486C300068C0F340001A
:101940000028F1D1207800F00400042870D100278D
:1019500070483830006800F0805090B900BF002017
:1019600000906C483830006840F080506949383148
:1019700008600846006800F08050009000BF00BF7B
:1019800001276748006800F48070B0B964480068B7
:1019900040F4807062490860FEF77CFE054606E070
:1019A000FEF778FE401B022801D90320B8E65C4808
:1019B000006800F480700028F2D000BFA068012801
:1019C00008D154486830006840F00100514968313E
:1019D00008601DE0A06805280DD14E4868300068F9
:1019E00040F004004B49683108600846006840F048
:1019F000010008600CE047486830006820F00100F2
:101A00004449683108600846006820F00400086016
:101A100000BFA068A8B1FEF73DFE054609E0FEF74D
:101A200039FE401B41F28831884202D9032077E613
:101A300026E0384868300068C0F340000028EED047
:101A400013E0FEF727FE054608E0FEF723FE401BE5
:101A500041F28831884201D9032061E62D4868307F
:101A60000068C0F340000028EFD1012F07D12948BA
:101A70003830006820F0805026493831086000BFB7
:101A8000A069002845D02348006800F00C00082811
:101A90005DD0A069022845D100201F490866FEF7E5
:101AA000F9FD054606E0FEF7F5FD401B022801D9C9
:101AB000032035E6174808380068C0F34060002866
:101AC000F1D1D4E907010843616A40EA811101229A
:101AD000A06AC2EB500041EA00412C20005D41EABF
:101AE00000600C49091F086001200B490866FEF7D9
:101AF000D1FD054606E0FEF7CDFD401B022801D9C9
:101B000003200DE6034808380068C0F34060002851
:101B1000F1D049E00838024000004742800E4742B9
:101B200000700040002021490866FEF7B3FD05461D
:101B300006E0FEF7AFFD401B022801D90320EFE5C8
:101B40001B480068C0F340600028F2D12CE0A06977
:101B5000012800D1E4E51648001D0668A0690128A7
:101B600020D006F48001E06981421BD106F03F01DC
:101B7000206A814216D147F6C0703040616AB0EBEE
:101B8000811F0FD106F440310122A06AC2EB500040
:101B9000B1EB004F06D106F070612C20005DB1EB77
:101BA000006F01D00120BBE50020B9E500004742ED
:101BB0000038024070B5044601250CB9012070BD03
:101BC000607F20B900202077204600F045F80220F1
:101BD000607700BFCA2021684862532021684862AC
:101BE00000BF204601F03DFB0546EDB92068806846
:101BF0001849084021688860216960680843616964
:101C00000843216889680843216888602168E06882
:101C1000086120680169208941EA00402168086163
:101C2000204601F043FB05466DB92068006C20F4A6
:101C30008020216808642068006CA169084321683D
:101C400008640120607700BFFF202168486200BF60
:101C50002846B4E7BFFF8FFF10B58CB00446302193
:101C60006846FEF78AFB0949206888420CD120208B
:101C7000009000010A906846FFF78CFA08B1FEF761
:101C8000E3FB0120024908600CB010BD00280040B1
:101C90003C0E474270B5044600252068C06820F01D
:101CA000A0002168C860FEF7F5FC054607E0FEF7D6
:101CB000F1FC401BB0F57A7F01D9032070BD20688C
:101CC000C06800F020000028F1D00020F6E770B5D1
:101CD00004462546681EB0F1807F01D301200FE045
:101CE000681E4FF0E02148610F214FF0FF3001F0F6
:101CF00023FE00204FF0E0218861072008610020CA
:101D000070BD7047704710B504460CB9012010BD76
:101D100094F83D0028B9002084F83C00204600F0EB
:101D200025F8022084F83D00211D206801F04EFBBB
:101D3000012084F8460000BF84F83E0001213F20C6
:101D40000155402001554120015500BF00BF012031
:101D500084F8420043200155442001554520015597
:101D600000BF012084F83D000020D0E738B50446CC
:101D70000E492068884217D100BF002000900C480F
:101D8000006840F480300A4908600846006800F4A2
:101D90008030009000BF00BF002211461820FFF7DE
:101DA00061F91820FFF74EF938BD000000400140EE
:101DB000443802402DE9F04104460D46002700BF9B
:101DC00094F83C00012802D10220BDE8F0810120F6
:101DD00084F83C0000BF022084F83D00206886683B
:101DE00026F0770626F47F4620688660286850280B
:101DF00033D00CDC202850D004DC00284BD0102835
:101E000051D149E0302849D040284CD139E06028F0
:101E10002DD0702807D0B0F5805F03D0B0F5005FFB
:101E200041D10DE041E0D5E902136A68206801F074
:101E30004AFB2068866846F077062068866034E0B2
:101E4000D5E902136A68206801F03DFB20688068CC
:101E500040F480402168886027E0EA68696820686B
:101E600001F022FC5021206801F038FB1DE0EA68F7
:101E70006968206801F02BFC6021206801F02EFBCE
:101E800013E0EA686968206801F00EFC40212068D0
:101E900001F024FB09E000BF00BF00BF29682068F3
:101EA00001F01CFB01E0012700BF00BF012084F806
:101EB0003D0000BF002084F83C0000BF384684E7A6
:101EC000704710B5044620680069C0F34000D8B1DF
:101ED0002068C068C0F34000B0B16FF00200216814
:101EE0000861012020772068806900F0030018B1A4
:101EF0002046FFF7E5FF05E0204600F0DDF820462C
:101F000000F091F90020207720680069C0F380007C
:101F1000D8B12068C068C0F38000B0B16FF0040091
:101F200021680861022020772068806900F44070F1
:101F300018B12046FFF7C4FF05E0204600F0BCF8CA
:101F4000204600F070F90020207720680069C0F377
:101F5000C000D8B12068C068C0F3C000B0B16FF055
:101F6000080021680861042020772068C06900F01B
:101F7000030018B12046FFF7A3FF05E0204600F05C
:101F80009BF8204600F04FF9002020772068006978
:101F9000C0F30010D8B12068C068C0F30010B0B121
:101FA0006FF0100021680861082020772068C06960
:101FB00000F4407018B12046FFF782FF05E020468C
:101FC00000F07AF8204600F02EF9002020772068F3
:101FD000006900F0010058B12068C06800F00100FD
:101FE00030B16FF0010021680861204600F0A2F9CD
:101FF00020680069C0F3C01058B12068C068C0F301
:10200000C01030B16FF08000216808612046FFF7F2
:1020100078FE20680069C0F3801058B12068C0685D
:10202000C0F3801030B16FF0400021680861204695
:1020300000F081F920680069C0F3401058B12068B1
:10204000C068C0F3401030B16FF020002168086113
:102050002046FFF757FE10BD10B586B00446142188
:1020600001A8FEF78AF91149206888421CD100BFF7
:10207000002000900E48006840F010000C490860F5
:102080000846006800F01000009000BF00BF20204C
:1020900001900220029000200390049003200590FC
:1020A00001A90448FEF7E8F906B010BD0040014060
:1020B000303802400010024070472DE9F0410446DC
:1020C0000D461646002700BF94F83C00012802D1B7
:1020D0000220BDE8F081012084F83C0000BF36B149
:1020E000042E1BD0082E31D00C2E5ED145E029469F
:1020F000206801F0FDF92068806940F0080021683F
:1021000088612068806920F0040021688861206867
:102110008069296908432168886148E02946206868
:1021200001F01EFA2068806940F40060216888612F
:102130002068806920F48060216888612068806957
:10214000296940EA01202168886130E02946206839
:1021500001F044FA2068C06940F008002168C861B5
:102160002068C06920F004002168C8612068C06947
:10217000296908432168C86119E02946206801F0EF
:1021800069FA2068C06940F400602168C86120686D
:10219000C06920F480602168C8612068C06929692D
:1021A00040EA01202168C86101E0012700BF00BFAB
:1021B00000BF002084F83C0000BF384689E710B516
:1021C00004460CB9012010BD94F83D0028B9002048
:1021D00084F83C00204600F025F8022084F83D00F9
:1021E000211D206801F0F2F8012084F8460000BFAC
:1021F00084F83E0001213F20015540200155412037
:10220000015500BF00BF012084F842004320015562
:10221000442001554520015500BF012084F83D00B0
:102220000020D0E77047704770B504460D4615B9D9
:1022300094F83E000BE0042D02D13F20005D06E043
:10224000082D02D14020005D01E04120005D012801
:1022500001D0012070BD1DB9022084F83E000EE0BF
:10226000042D03D102213F20015508E0082D03D1A0
:1022700002214020015502E00221412001550122A6
:102280002946206801F00EF923492068884203D0CE
:1022900022492068884201D1012000E0002028B1B5
:1022A0002068406C40F40040216848641A49206866
:1022B00088421BD02068B0F1804F17D018492068A1
:1022C000884213D01749206888420FD016492068E9
:1022D00088420BD011492068884207D013492068F2
:1022E000884203D01249206888420CD12068806857
:1022F00000F00706062E0CD02068006840F00100B0
:102300002168086005E02068006840F0010021684D
:10231000086000209EE7000000000140000401402A
:102320000004004000080040000C00400040014054
:10233000001800407047704710B504460CB90120E2
:1023400010BDA06900B100E000BF94F83D0028B9BD
:10235000002084F83C00204600F028F8242084F86F
:102360003D002068C06820F400502168C860204605
:1023700001F0C2F92068006920F4904021680861EA
:102380002068406920F02A00216848612068C06800
:1023900040F400502168C86000202064202084F8A8
:1023A0003D0084F83E000020CAE7000010B586B06A
:1023B0000446142101A8FDF7E0FF44492068884243
:1023C0004DD100BF002000904148006840F48010CB
:1023D0003F4908600846006800F48010009000BF84
:1023E00000BF00BF0020009039481038006840F05E
:1023F00004003749103908600846006800F00400FE
:10240000009000BF00BF00BF002000900846006899
:1024100040F0080008600846006800F008000090DE
:1024200000BF00BF8814019002200290002003909A
:10243000032004900820059001A92648FEF71CF807
:1024400004200190022002900020039003200490B9
:102450000820059001A92048FEF70EF834E01F4936
:102460002068884230D100BF0020009018480068E2
:1024700040F48020164908600846006800F4802077
:10248000009000BF00BF00BF00200090104810382F
:10249000006840F008000E491039086008460068DE
:1024A00000F00800009000BF00BF4FF440700190A2
:1024B0000220029000200390032004900720059042
:1024C00001A90548FDF7D8FF06B010BD0050004037
:1024D0004038024000080240000C02400048004022
:1024E00000BFFEE7014608684069C0F38020B0B134
:1024F0006FF480600A68506100200863202081F832
:102500003D00002081F83E00086C40F004000864A3
:1025100000BF002081F83C0000BF01207047002070
:10252000FCE700002DE9F84304460D46174698469F
:10253000E66A082E04D0012E02D016F5803F06D19F
:102540002068006840F480702168086008E0206B13
:10255000122805D12068006840F480702168086066
:102560003B4600224FF001112046CDF8008000F0DC
:1025700087F960B12068006800F48070B0F5807F52
:1025800002D14FF4007020640320BDE8F883206975
:10259000B0F5804F04D105F0FE002168086112E01B
:1025A00005F44070F02141EAE010216808614346DB
:1025B0003A460B49204600F0A6F908B10120E4E7AD
:1025C000E8B22168086143463A460549891F20461A
:1025D00000F099F908B10120D7E70020D5E7000005
:1025E000080001002DE9F84304460F4615469946B8
:1025F000DDE908862068006840F480602168086092
:102600002068006840F4807021680860434600221A
:102610004FF001112046009600F032F960B12068B9
:10262000006800F48070B0F5807F02D14FF4007034
:1026300020640320BDE8F88307F0FE0021680861EC
:10264000334642463E49204600F05DF908B101207C
:10265000F0E700BF002000902068406900902068EB
:102660008069009000BF00BF32464146204600F01E
:10267000ECF950B1206C042805D12068006840F4C2
:102680000070216808600120D4E7B9F1010F03D17F
:10269000E8B22168086117E0C5F3072021680861E6
:1026A00032464146204600F0D0F950B1206C042853
:1026B00005D12068006840F400702168086001209E
:1026C000B8E7E8B22168086132464146204600F08A
:1026D000BCF950B1206C042805D12068006840F492
:1026E0000070216808600120A4E72068006840F4B9
:1026F000807021680860434600224FF00111204697
:10270000009600F0BDF858B12068006800F48070B1
:10271000B0F5807F02D14FF400702064032089E778
:10272000F8B240F00100216808613346424604498E
:10273000204600F0E8F808B101207BE7002079E7A7
:10274000020001002DE9F8430446884615469946E3
:10275000DDE908672068006840F48070216808603F
:10276000334600224FF001112046009700F088F810
:1027700060B12068006800F48070B0F5807F02D1FD
:102780004FF4007020640320BDE8F88308F0FE00D9
:10279000216808613B4632462149204600F0B3F8E3
:1027A00008B10120F0E700BF0020009020684069D8
:1027B000009020688069009000BF00BF3A46314613
:1027C000204600F042F950B1206C042805D1206861
:1027D000006840F40070216808600120D4E7B9F176
:1027E000010F03D1E8B22168086117E0C5F30720A3
:1027F000216808613A463146204600F026F950B17A
:10280000206C042805D12068006840F4007021681D
:1028100008600120B8E7E8B2216808610020B3E74A
:102820000200010070B504460D46164620E0204621
:10283000FFF758FE08B1012070BD681CC0B1FDF75C
:1028400029FF801BA84200D895B9002020632020D2
:1028500084F83D00002084F83E00206C40F0200009
:10286000206400BF002084F83C0000BF0120E3E7A3
:1028700020684069C0F380000028D8D00020DBE742
:102880002DE9F04104460D4617461E46DDF8188036
:102890001CE0701CD0B1FDF7FDFEA0EB0800B042BB
:1028A00000D89EB900202063202084F83D0000203D
:1028B00084F83E00206C40F02000206400BF00201F
:1028C00084F83C0000BF0120BDE8F081C5F307405B
:1028D00001280AD120684069A9B20840A9B28842FB
:1028E00001D101200BE0002009E020688069A9B235
:1028F0000840A9B2884201D1012000E00020B8427E
:10290000C7D00020E0E72DE9F04104460D46164609
:102910001F463DE020684069C0F38020E8B1206890
:10292000006840F40070216808606FF480602168DE
:10293000486100202063202084F83D00002084F8B6
:102940003E00206C40F00400206400BF002084F8AA
:102950003C0000BF0120BDE8F081701CC0B1FDF754
:1029600099FEC01BB04200D896B9002020632020F9
:1029700084F83D00002084F83E00206C40F02000E8
:10298000206400BF002084F83C0000BF0120E2E783
:10299000C5F3074001280AD120684069A9B2084060
:1029A000A9B2884201D101200BE0002009E0206893
:1029B0008069A9B20840A9B2884201D1012000E093
:1029C00000200028A6D00020C5E770B504460D46BB
:1029D000164632E020684069C0F30010A0B16FF0E5
:1029E00010002168486100202063202084F83D0009
:1029F000002084F83E00206C206400BF002084F892
:102A00003C0000BF012070BDFDF744FE801BA842C2
:102A100000D895B900202063202084F83D000020D4
:102A200084F83E00206C40F02000206400BF0020AD
:102A300084F83C0000BF0120E5E720684069C0F34E
:102A400080100028C6D00020DDE770B504460D4692
:102A5000164620E02046FFF745FD08B1012070BD75
:102A6000681CC0B1FDF716FE801BA84200D895B9BE
:102A700000202063202084F83D00002084F83E00E0
:102A8000206C40F02000206400BF002084F83C004F
:102A900000BF0120E3E720684069C0F3C0100028B0
:102AA000D8D00020DBE7000000B587B0142102A8D1
:102AB000FDF763FC00BF002001909348006840F0E0
:102AC0001000914908600846006800F0100001906D
:102AD00000BF00BF00BF002001900846006840F022
:102AE000040008600846006800F00400019000BF80
:102AF00000BF00BF002001900846006840F02000A1
:102B000008600846006800F02000019000BF00BF88
:102B100000BF002001900846006840F08000086077
:102B20000846006800F08000019000BF00BF00BFB1
:102B3000002001900846006840F001000860084647
:102B4000006800F00100019000BF00BF00BF00203E
:102B500001900846006840F00200086008460068DE
:102B600000F00200019000BF00BF00BF00200190F4
:102B70000846006840F0080008600846006800F059
:102B80000800019000BF00BF00BF00200190084670
:102B9000006840F0400008600846006800F040000F
:102BA000019000BF00BF00224DF20C415748FDF7D5
:102BB0006BFD002244F281015548FDF765FD0022BE
:102BC0004FF4C0515348FDF75FFD002240215248A9
:102BD000FDF75AFD4DF20C400290012003900020B9
:102BE0000490059002A94948FDF746FC4FF40050B7
:102BF00002904FF4881003900020049002A94748E7
:102C0000FDF73AFC3220029002200390002004904D
:102C1000032005900B20069002A94048FDF72CFCEC
:102C2000862002900220039000200490032005904B
:102C30000B20069002A93A48FDF71EFC44F28100E1
:102C400002900120039000200490059002A93048D2
:102C5000FDF712FC4FF40050029002200390002078
:102C60000490032005900B20069002A92848FDF748
:102C700003FC4FF4C0500290012003900020049008
:102C8000059002A92348FDF7F7FB402002900120A0
:102C9000039000200490059002A91F48FDF7ECFB6B
:102CA0008020029000200390049002A91A48FDF7AA
:102CB000E3FB4FF4E85002900220039000200490C0
:102CC000032005900A20069002A91548FDF7D4FBC1
:102CD0004FF40070029000200390049002A9104865
:102CE000FDF7CAFB4FF42050029002200390002011
:102CF0000490032005900B20069002A90648FDF7DA
:102D0000BBFB07B000BD000030380240001002409D
:102D100000040240000C024000180240000802407B
:102D20000000024010B5124812490860124848607D
:102D3000002110488160C1604FF480410161002191
:102D400041618161C1610162FDF7F8FC08B1FDF7E5
:102D50007BFB00210748FDF7A3FC08B1FDF774FBDE
:102D600000210448FDF7C2FC08B1FDF76DFB10BD62
:102D70000058004014000020A086010010B50A4849
:102D80000A490860002048607F2108488160FF21CF
:102D9000C1600021016141618161FEF70BFF08B153
:102DA000FDF752FB10BD0000002800406800002025
:102DB00000B58BB000200790089009900A901C2164
:102DC0006846FDF7DAFA1C481C4908605320486041
:102DD00000211A48816042F20F71C1600021016137
:102DE0008161FEF790FF08B1FDF72EFB4FF4805094
:102DF000079007A91148FEF7DDFF08B1FDF724FB96
:102E00000E48FFF7DCF908B1FDF71EFB60200090CB
:102E100041F288300190002002900490002269461F
:102E20000648FFF74AF908B1FDF70EFB0348FFF724
:102E300013F90BB000BD00000040014088000020E5
:102E400010B50B480B4908604FF4E1304860002191
:102E500008488160C16001610C21416100218161EC
:102E6000C161FFF769FA08B1FDF7EEFA10BD000085
:102E700000500040D000002010B50B480B490860FE
:102E80004FF4E1304860002108488160C160016171
:102E90000C21416100218161C161FFF74DFA08B148
:102EA000FDF7D2FA10BD00000048004014010020D8
:102EB00000BFFEE700BFFEE710B50446224605212D
:102EC000002000F019F810BD10B504460548046054
:102ED00000F0B2F9302000F0B3F80120FFF7ECFF6A
:102EE000002010BD0000002010B504462246072136
:102EF000002000F001F810BD7FB506460C461546CF
:102F000005B101250A20012103AA0B46CDE90021C4
:102F100002903246802115480068FDF7AFFD10B1E0
:102F2000012004B070BD0120A04040F080019DF858
:102F30000C008843039005F00100A0409DF80C10A0
:102F40000843C0B203900A20012103AA0B46CDE931
:102F5000002102903246802104480068FDF708FFF6
:102F600008B10120DDE70020DBE7000000000020C1
:102F700070B506460C461546B4F5805F01DB40F699
:102F8000FF74D5B134B900224FF48051304600F0BF
:102F90002DF870BD40F6FF70844205D1421C00211F
:102FA000304600F023F8F4E740F6FF70001B82B2D1
:102FB0000021304600F01AF8EBE740F6FF7084423B
:102FC00005D10022411C304600F010F8E1E734B989
:102FD0004FF480520021304600F008F8D9E722462D
:102FE0000021304600F002F8D3E700002DE9FF4150
:102FF00006460C461546B000801DC7B2E0B28DF8FB
:103000000C0020128DF80D00E8B28DF80E00281289
:103010008DF80F000A20042103AA0123CDE9002125
:1030200002903A46802105480068FDF7A1FE18B1DC
:10303000012004B0BDE8F0810020FAE70000002084
:1030400030B52DED088B85B0044640F2F650844231
:1030500002DB0320049048E0182C02DCFF200490DF
:1030600043E000EE104AB8EE400A10EE100A01F0FC
:1030700075FC41EC1B0B9FED2A0B53EC102B01F060
:1030800043FA41EC1A0B53EC1A2B9FED270B51EC32
:10309000100B01F077F841EC190B9FED250B53EC69
:1030A000102B01F071FB41EC180B00F085FF054679
:1030B000284601F053FC41EC1A0B9FED1F0B53EC1B
:1030C000102B00F0ABFF41EC190BB0EE490AF0EE0B
:1030D000690A00F045FCB0EE408AF0EE608A51ECDF
:1030E000180B01F0A7F9C0B20490012000F09CF881
:1030F0000A20012104AA0B46CDE900210290FE22FC
:1031000080210F480068FDF733FE002000F08CF8A6
:103110000120FFF7E9FE002005B0BDEC088B30BDB3
:10312000000000000000B0400000000084D777419C
:10313000000000000000F03F000000000000E03F41
:103140000000002010B52DED0C8B0446B0EE408A37
:1031500018EE100A01F002FC41EC190B9FED280B50
:1031600053EC102B01F094F903D29FED270AB0EE37
:10317000408A18EE100A01F0F1FB41EC190B9FEDAB
:10318000230B53EC102B01F0BDFA03D29FED210A63
:10319000B0EE408A18EE100A01F0E0FB41EC1D0B86
:1031A0009FED170B53EC102B01F0EEFA41EC1C0BCA
:1031B0009FED190B53EC102B01F0A6F941EC1B0B02
:1031C0009FED120B53EC102B00F0DCFF41EC1A0BBF
:1031D0009FED130B53EC102B00F020FF41EC190B6B
:1031E00000F0EAFE08EE900ABCEEE80A10EE100AC3
:1031F00081B200222046FFF7BBFEBDEC0C8B10BD58
:1032000000000000000000000000000000000000BE
:1032100000806640000034430000000000607840F9
:103220000000000000805B4010B5044622460421E7
:103230000020FFF761FE10BD1CB5062001900A209A
:10324000012301AA0021009004480068FDF75EFBFD
:1032500008B900201CBD0120FCE700000000002090
:10326000704770B50446002600252068C06800F04D
:103270004000C8B92068C06840F080002168C8607C
:10328000FDF708FA064608E0FDF704FA801BB0F5E2
:103290007A7F02D90420607701252068C06800F099
:1032A000400008B9012DEFD1284670BD70B5044625
:1032B00000252068C06820F080002168C860206870
:1032C000806800F0200030B92046FEF7E3FC10B122
:1032D000042060770125284670BD704710B5FDF7C2
:1032E0003DFE10BD00B593B0302107A8FDF745F8AD
:1032F000142102A8FDF741F800BF002001902848E2
:10330000006840F08050264908600846006800F0D8
:103310008050019000BF00BF00BF002001902148F5
:10332000006840F440401F4908600846006800F407
:103330004040019000BF00BF0A20079001200A9082
:1033400010200B9001200C9002200D9000210E9176
:1033500008210F91B421109102211191072112919E
:1033600007A8FEF7D9F908B1FDF76EF8FDF7CCFE16
:1033700008B1FDF769F80F200290022003900020A9
:1033800004904FF4A05005904FF480500690052112
:1033900002A8FEF781F808B1FDF756F813B000BD9A
:1033A00040380240007000400348006840F470005C
:1033B000014908607047000088ED00E010B5024840
:1033C000FEF77FFD10BD00008800002010B50268E8
:1033D000294B98420ED0B0F1804F0BD0274B98422A
:1033E00008D0274B984205D0264B984202D0264B56
:1033F000984203D122F070024B681A431E4B984248
:1034000020D0B0F1804F1DD01C4B98421AD01C4BDD
:10341000984217D01B4B984214D01B4B984211D0A6
:103420001A4B98420ED01A4B98420BD0194B984227
:1034300008D0194B984205D0184B984202D0184B2F
:10344000984203D122F44072CB681A4322F08003E1
:103450004C6943EA040202608B68C3620B688362B2
:10346000054B984202D0084B984201D10B69036387
:103470000123436110BD0000000001400004004032
:1034800000080040000C00400004014000400140E2
:10349000004401400048014000180040001C00406A
:1034A0000020004030B501F01F05012404FA05F3A7
:1034B000046A9C430462046A01F01F0502FA05F5E0
:1034C0002C43046230BD30B50C46816821F47F4145
:1034D00042EA032525432943816030BD0A468168BD
:1034E00021F0700142F0070319438160704700002A
:1034F00030B5056A25F001050562026A43688469F2
:1035000024F0700424F003040D682C4322F002021E
:103510008D682A43104DA84200D103E00F4DA84208
:1035200006D100BF22F00802CD682A4322F004022F
:10353000094DA84202D0094DA84207D123F4807357
:1035400023F400734D692B438D692B4343608461E1
:103550004D684563026230BD000001400004014037
:1035600030B5056A25F010050562026A4368846972
:1035700024F4E04424F440740D6844EA052422F065
:1035800020028D6842EA0512124DA84200D103E0E4
:10359000114DA84207D100BF22F08002CD6842EA57
:1035A000051222F040020B4DA84202D00A4DA8425B
:1035B00009D123F4806323F400634D6943EA850352
:1035C0008D6943EA8503436084614D6885630262C7
:1035D00030BD0000000001400004014030B5056A24
:1035E00025F480750562026A4368C46924F070049A
:1035F00024F003040D682C4322F400728D6842EA23
:103600000522124DA84200D103E0114DA84207D176
:1036100000BF22F40062CD6842EA052222F48062F3
:103620000A4DA84202D00A4DA84209D123F4805382
:1036300023F400534D6943EA05138D6943EA0513EA
:103640004360C4614D68C563026230BD0000014043
:103650000004014030B5056A25F480550562036A0F
:103660004468C26922F4E04222F440720D6842EAE2
:10367000052223F400538D6843EA0533084DA84220
:1036800002D0084DA84204D124F480444D6944EA94
:1036900085144460C2614D680564036230BD00005A
:1036A000000001400004014030B50B461446026A98
:1036B000056A25F001050562816921F0F00141EA02
:1036C000041122F00A021A438161026230BD30B552
:1036D0000B461446056A25F0100505628169026AE9
:1036E00021F4704141EA043122F0A00242EA0312BF
:1036F0008161026230BD00002DE9F84F0446206868
:10370000006920F44050E16808432168086121699C
:10371000A068084361690843E16908430090206894
:10372000C06849F20C618843009908432168C86069
:103730002068406920F44070A1690843216848610D
:1037400076492068884203D075492068884203D1B1
:10375000FDF77AFF814602E0FDF766FF8146E069EA
:10376000B0F5004F6CD102206168A0FB0150034608
:103770001920A9FB007001462A463846FCF786FD51
:103780006421B0FBF1F04FEA001A02206168A0FB4F
:1037900001510B461920A9FB00712A463846FCF757
:1037A00075FD834602206168A0FB01500346192085
:1037B000A9FB00712A463846FCF768FD6421B0FB7E
:1037C000F1F000EBC00101EB0010ABEB8000322107
:1037D00001EBC0006421B0FBF1F000F0F8000AEB4F
:1037E000400A02206168A0FB015003461920A9FB92
:1037F000007001462A463846FCF748FD8346022001
:103800006168A0FB015003461920A9FB00712A46FC
:103810003846FCF73BFD6421B0FBF1F000EBC00142
:1038200001EB0010ABEB8000322101EBC000642102
:10383000B0FBF1F000F007005044216888606AE0B6
:1038400004206168A0FB015003461920A9FB007009
:1038500001462A463846FCF719FD82460420616875
:10386000A0FB015003461920A9FB007001462A461F
:103870003846FCF70BFD6421B0FBF1F000EBC00112
:1038800001EB0010AAEB8000322101EB0010642153
:10389000B0FBF1F000F0F00A04206168A0FB0170B9
:1038A00003461920A9FB00513A462846FCF7EEFCD6
:1038B0006421B0FBF1F00AEB001A04206168A0FB60
:1038C00001510B461920A9FB00712A463846FCF726
:1038D000DDFC834604206168A0FB015003461920EB
:1038E000A9FB007001462A463846FCF7CFFC64214C
:1038F000B0FBF1F000EBC00101EB0010ABEB80007E
:10390000322101EB00106421B0FBF1F000F00F0058
:10391000504421688860BDE8F88F00000010014025
:103920000014014000BFFEE702480068C0F3022017
:10393000704700000CED00E010B5002804DB0A071A
:10394000130E054A135406E00A07140E034A00F04A
:103950000F031B1FD45410BD00E400E018ED00E07D
:103960002DE9F0412DED020B9FED3D0B2DED028B6E
:103970009FED3D8BDDE90254C4F30A50A0F2FF36FF
:10398000142E37DA002E18DA53EC102B9DED020BB3
:1039900051EC100B00F042FB53EC182B00F0B2FE80
:1039A00057D2002CA4BF0024254652DA24F0004050
:1039B000284318BF2E4C4CD01AE02E4820FA06F7A8
:1039C00004EA070028431FD053EC102B9DED020B97
:1039D00051EC100B00F022FB53EC182B00F092FE80
:1039E00037D2002C03DA4FF48010F0400444BC437B
:1039F00000252EE0332E07DCA6F114004FF0FF3136
:103A000021FA00F73D4206D19DED020BBDEC028B81
:103A100002B0BDE8F08153EC102B9DED020B51EC90
:103A2000100B00F0A5FE53EC182B00F06BFE10D22B
:103A3000002C0DDA142E08BF641C09D0C6F1340026
:103A4000012101FA00F02844A84238BF641C054651
:103A5000BD43CDE902549DED020BD7E70000000005
:103A60009C7500883CE4377E0000000000000000E8
:103A70000000F0BFFFFF0F0010B5FDF77BFAFFF766
:103A800031FCFFF711F8FFF74DF9FFF777F9FFF772
:103A90008FF9FFF7D5F9FFF7EFF90021FE48FEF7A0
:103AA000C3FBFE48FFF710FA4FF47A70FCF7D0FC26
:103AB00000224FF48061FA48FCF7E6FD00224FF443
:103AC0008051F748FCF7E0FD00224FF48041F448B4
:103AD000FCF7DAFD00224FF40041F148FCF7D4FD79
:103AE00060E2B3EE0E0A0020FFF72CFBB2EE0E0AE6
:103AF0000120FFF727FB9FEDEB0A0A20FFF722FBCF
:103B000040F2DC50FCF7A4FC00224FF40061E648D0
:103B1000FCF7BAFD01221103E348FCF7B5FD40F6BE
:103B2000B830FCF795FC0122D102DF48FCF7ACFD70
:103B300001221103DC48FCF7A7FD002468E0012204
:103B40009102D748FCF7A0FD00224FF48051D448E1
:103B5000FCF79AFD00224FF48041D148FCF794FD18
:103B600000224FF40041CE48FCF78EFD0220FCF706
:103B70006FFC00224FF48061C948FCF785FD0122EB
:103B80001103C748FCF780FD00224FF48041C44870
:103B9000FCF77AFD00224FF40041C148FCF774FDA8
:103BA0000220FCF755FC00224FF48061BC48FCF772
:103BB0006BFD00224FF48051B948FCF765FD0122EE
:103BC0009103B748FCF760FD00224FF40041B44870
:103BD000FCF75AFD0220FCF73BFC00224FF4806109
:103BE000AF48FCF751FD00224FF48051AC48FCF780
:103BF0004BFD00224FF48041A948FCF745FD01220E
:103C0000D103A748FCF740FD0220FCF721FC641C0F
:103C1000232C94DB4FF4FA60FCF71AFC002468E0D4
:103C200000224FF480619E48FCF72EFD00224FF4E5
:103C300080519B48FCF728FD00224FF480419848B2
:103C4000FCF722FD0122D1039548FCF71DFD02205F
:103C5000FCF7FEFB00224FF480619148FCF714FD55
:103C600000224FF480518E48FCF70EFD0122910393
:103C70008B48FCF709FD00224FF400418848FCF70F
:103C800003FD0220FCF7E4FB00224FF4806184482E
:103C9000FCF7FAFC012211038148FCF7F5FC002235
:103CA0004FF480417E48FCF7EFFC00224FF40041C6
:103CB0007B48FCF7E9FC0220FCF7CAFB01229102D9
:103CC0007748FCF7E1FC00224FF480517448FCF780
:103CD000DBFC00224FF480417148FCF7D5FC002248
:103CE0004FF400416E48FCF7CFFC0220FCF7B0FB1C
:103CF000641C232C94DB4FF4FA60FCF7A9FB9FEDC6
:103D00006B0A0120FFF71EFA4FF4FA60FCF7A0FBE4
:103D1000B2EE040A0020FFF715FA4FF4FA60FCF740
:103D200097FB9FED630A0120FFF70CFA4FF4FA604E
:103D3000FCF78EFB9FED5D0A0120FFF703FA4FF4BD
:103D4000FA60FCF785FB9FED5B0A0120FFF7FAF9AB
:103D50004FF4FA60FCF77CFB9FED560A0A20FFF750
:103D6000F1F94FF4FA60FCF773FB9FED530A012061
:103D7000FFF7E8F94FF4FA60FCF76AFB9FED4F0A92
:103D80000020FFF7DFF94FF4FA60FCF761FB9FEDCD
:103D9000470A0120FFF7D6F94FF4FA60FCF758FB09
:103DA00040F65430464948639FED460A0120FFF72C
:103DB000C9F94FF4FA70FCF74BFB00220421384894
:103DC000FCF762FC012208213548FCF75DFC4FF44A
:103DD000FA70FCF73DFB9FED3C0A0120FFF7B2F9BA
:103DE0004FF4FA70FCF734FB002204212C48FCF756
:103DF0004BFC012208212A48FCF746FC4FF4FA70DC
:103E0000FCF726FB9FED310A0120FFF79BF94FF4E9
:103E1000FA70FCF71DFB002204212148FCF734FC5A
:103E2000012208211E48FCF72FFC4FF4FA70FCF722
:103E30000FFB9FED270A0120FFF784F94FF4FA707A
:103E4000FCF706FB002204211548FCF71DFC0122AB
:103E500008211348FCF718FC4FF4FA70FCF7F8FA45
:103E60009FED1C0A0120FFF76DF94FF4FA70FCF783
:103E7000EFFA002204210A48FCF706FC012208217F
:103E80000748FCF701FC4FF4FA70FCF7E1FA012255
:103E90000421034820E000008800002014000020D6
:103EA0000010024000000000000C02400000E6424A
:103EB00000001D43000082420000D24200005C422C
:103EC000004001400000F0420000F4420000F842CF
:103ED0000000FC4200000043FCF7D6FB0122082151
:103EE0003248FCF7D1FB4FF4FA60FCF7B1FA9FEDD2
:103EF000300A0120FFF726F94FF4FA70FCF7A8FA10
:103F0000002204212948FCF7BFFB01220821274891
:103F1000FCF7BAFB4FF4FA70FCF79AFA012204217D
:103F20002248FCF7B1FB012208212048FCF7ACFB3A
:103F30004FF4FA70FCF78CFA1FED220A0120FFF70C
:103F400001F94FF4FA60FCF783FAB3EE0E0A002091
:103F5000FFF7F8F8B2EE0E0A0120FFF7F3F81FEDB5
:103F60002F0A0A20FFF7EEF840F6B830FCF770FA97
:103F70000122D1020F48FCF787FB00224FF4805149
:103F80000C48FCF781FB40F6B830FCF761FA0122DF
:103F9000D1020848FCF778FB012211030548FCF721
:103FA00073FB00E09DE500BF002010BD0010024043
:103FB00000000243000C024021F00042A2F16052D6
:103FC000B2F5801F01F0004328BFD2F17F6C0BD9FE
:103FD0005FEA001C43EAC20242EB507018BF704710
:103FE00028BF20F001007047B2F5801FBCBF184603
:103FF00070474FEA410C1CF5001F02D2084600F042
:1040000023BD70B500F02AFB00000089FFF7F6BF62
:104010004FF00040A0F580007047000010B591EA15
:10402000030F48BF83F0004300F1B683841A71EB9D
:10403000030C05D2121943EB0C03001B61EB0C01BE
:10404000DFF824E14FEA1154A4EB135C1EEA430F9E
:1040500018BF9EEA445F73D023EA0E03DCF1200E02
:1040600021EA045143F4801332D322FA0CFE10EB00
:104070000E0023FA0CFE41EB0E01CCF1200E03FAE8
:104080000EFE10EB0E0051F10001B1F5801FCCF1D6
:10409000200E32D201EB045112FA0EF2BDE81040AC
:1040A00058BF7047401C38BF5FEA420218BF7047D4
:1040B000002814BF20F0010041F100014FEA410344
:1040C00013F5001F38BF7047A1F1C04100F014BBC9
:1040D000012A43EB0302ACF1200CDCF11F0E32BFCE
:1040E0004FF0000E23FA0CF310EB030041EB0451E8
:1040F000B4EB115FD0D0A1EB045101F58011490858
:104100005FEA300001EB04510ED350F1000038BFDC
:1041100012FA0EFE08D1BDE81040C9E7401C38BFB6
:104120005FEA4202CAD1C3E7BDE810404FEA41034B
:1041300013F5001F38BF7047A1F1C04100F0DCBA91
:104140009EEA445F08D011EA5E0FBDE8104004BF4C
:1041500001F0004100207047BDE8104070B500F04C
:104160007DFA00BF64FBBE3E0000E0FF491058BF6F
:10417000C1F140415B1058BFC3F140438B42EFF3A4
:10418000008070472DE9C04130B4DFF8A0C23CEA9E
:10419000111418BF3CEA131400F0EC8081EA030507
:1041A0001CEA111444EAD57418BF1CEA131500F078
:1041B000C780A4EB05044FF0004545EAC12145EA5C
:1041C000C32341EA505143EA525304F17F749942A8
:1041D00004F500344FEAC0204FEAC22208BF9042E3
:1041E00000F09C804FEA13650FF24016765D4FEAAF
:1041F000134506FB05F7C7F1807706FB07F74FEA83
:10420000D737A7FB03687642C8F58038A7FB06CEF0
:1042100038BFA8F1010807FB08E64FF0000EA6FB27
:10422000028CE6FB03CEDCF1000CCEF1004E38BF71
:10423000AEF1010EA6FB0C584FF000074FF0000541
:10424000E6FB0E87A1FB08C6A0FB07CE16EB0E0609
:1042500045F10005E1FB076515F1E04E7EBFA4F5D1
:1042600080345FEA46066D4116F1800745F100058E
:104270004FEA17274FEA066647EA0567A6F1DE46CA
:10428000B6F1805F4FEA15251FD9384624F0010C9E
:1042900005EBC471BCF1FE6F01EB0C1102D8F0BC50
:1042A000BDE8008124425CBF01F5801E9EEAC47F08
:1042B00002D4F0BCBDE80081244238D4F0BCA1F1A6
:1042C000C041BDE8004100F017BA4FEAD22242EAED
:1042D00043524FEAD323A7FB02864FEAD02040EA9D
:1042E000415007FB03661EEA0E0F4FEAD12105FB82
:1042F000026658BFA6EB0056B6EB00564FEA520EC8
:104300004EEAC37E18EB0E0E56EB530EBDD518EBDE
:1043100002085E417F1C55F10005B6E74FF4801599
:104320004FF000074FF000064FF00008ADE7F0BC7B
:104330004FF0000001F1C04101F00041BDE80081F3
:1043400011EA0C1F0CEA131500D00CE013EA0C1F45
:1043500000F025804FF00000F0BC81EA030101F07D
:104360000041BDE80081F0BCBDE8004181EA0301E5
:1043700000F0C2B9F0BCBDE8004170B500F06EF9C4
:10438000097EFC3E00F007B881EA03014FF000000F
:1043900001F00041704781EA030100F0ADB9F0BCC3
:1043A000BDE800414FF0000021497047FFFDFBF9D7
:1043B000F7F5F4F2F0EEEDEBE9E8E6E4E3E1E0DE58
:1043C000DDDBDAD8D7D5D4D3D1D0CFCDCCCBCAC8CA
:1043D000C7C6C5C4C2C1C0BFBEBDBCBBBAB9B8B7F1
:1043E000B6B5B4B3B2B1B0AFAEADACABAAA9A8A8E4
:1043F000A7A6A5A4A3A3A2A1A09F9F9E9D9C9C9BB2
:104400009A9999989797969595949393929191905C
:104410008F8F8E8E8D8C8C8B8B8A898988888787ED
:104420008685858484838382828181800000FF0762
:104430000000F87F4FEA1153A3F58063D3F11E0308
:10444000A8BFD3F1200C08DB4FF0004242EAC122A2
:1044500052EA505232FA03F0704709420BD4102B43
:10446000C4BF0020704703F5787CBCF1FF3F05D046
:104470004FF0FF3070474FF00000704770B500F00C
:10448000EDF800BF4992248000207047F0E700005B
:1044900051EA030C17D41CF5801F58BFBCF5801FD0
:1044A00000F10680994218BF704708BF90427047DC
:1044B00007D711F5801F58BF13F5801F19D49942F3
:1044C0007047894270471CF5801F08D5BCF5801FD6
:1044D000F7D58B4218BF704708BF824270474FF430
:1044E000001C1CEB410F38BF1CEB430F01D28B4269
:1044F000704770B500F0B2F8922449004FF00051B7
:104500004FF08053FFF732BEDFF848C170B51CEAA8
:10451000111E1EBF1CEA13159EEA0C0F95EA0C0F24
:1045200000F06F8081EA030423EA4C134EEAD47E44
:1045300021EA4C1141F4801143F48013AE44A1FBF5
:10454000024CA0FB0365AEF17F7E361955EB0C05DE
:10455000A1FB034C4CF10003A0FB021C16EB0C0664
:10456000654153F10003094218BF46F0010613F4F8
:10457000007F0BD14FEA03314FEA0530340341EAA3
:10458000155140EA16506FF003020AE04FEAC321CA
:104590004FEAC520F40241EA555140EA56506FF007
:1045A000020202EB2E4201EB025585EACE710AD0DF
:1045B0005FEA440C18BF24F0004450F1000041F1C0
:1045C000000120EAD47040F2FE7C624500D270BD4A
:1045D000A84214BF4FF080444FF04044002E08BF63
:1045E0000024BEF1806FA8BFA1F1C041BDE87040BA
:1045F00080F282804FF0000001F1C04101F00041E3
:1046000070479EEA0C0F0CEA131518BF95EA0C0FC1
:1046100006D04FF0000081EA030E0EF0004170BD9D
:1046200000F01CF88900013E00F007B800F009B85E
:104630004FEA430C5FEA5C5C08D081EA030100F0BA
:104640005BB84FEA410C5FEA5C5CF6D14FF00000CA
:10465000014970470000FF070000F87F0EF1020ECD
:104660002EF0030E5EF8046B364205D4012A43EBAC
:10467000030515F5001F12D8012841EB010C1CF5AC
:10468000001F0CD80ED14FEAD17C15F5001F0CEBA2
:104690004C0C0CF1020C08BF4CEBD37C04E04FF047
:1046A000080C01E04FEAD37C0CEB4C0526FA05F62A
:1046B00006F00706B6F1040C06D20EEB860CBDE838
:1046C00070404CF0010C6047DFE80CF0090B02026F
:1046D0004FF000414FF00000A1F5002170BD1946D8
:1046E0001046012851EB010418BFD4F5001484BF13
:1046F000002001F0004170BD0808A0F500114FEA4C
:104700003101704753EA010C17D41CF5801F58BFC4
:10471000BCF5801F00F106808B4218BF704708BFB0
:104720008242704707D713F5801F58BF11F5801FCD
:1047300019D48B4270479B4270471CF5801F08D5E7
:10474000BCF5801FF7D5994218BF704708BF90424B
:1047500070474FF4001C1CEB430F38BF1CEB410F9C
:1047600001D2994270470FB40CBC03BCFFF7C1BE25
:1047700091EA030F10B581F000413FF557AC83F08B
:10478000004300F009B8000010B591EA030F48BFDC
:1047900083F000433FF54AAC841A71EB030C07D257
:1047A00012198CF0004C43EB0C03001B61EB0C0165
:1047B000DFF8A4E14FEA1154A4EB135C1EEA430FA7
:1047C00018BF9EEA445F00F0B08023EA6E035242B5
:1047D00021EA0451C3EB6E0338BF5B1EDCF1200EEF
:1047E00025D322FA0CFE10EB0E0043FA0CFE41EB2F
:1047F0000E01CCF1200E03FA0EFE10EB0E0051F16B
:104800000001CCF1200E29D412FA0EF201EB045172
:10481000BDE8104058BF7047401C1CBFB2F1004FAC
:10482000704700280CBF491C20F00100704712EBB4
:10483000020E43EB030218BF4FF0010E4EEA420294
:10484000ACF1200CDCF11E0E54D943FA0CFE10EB37
:104850000E0051F1FF31CCF11E0ED5D50EF1010E37
:1048600012FA0EFE404141EB010101EB445C5FEAAC
:104870005C5C10D910EBDE7001EB045138BFBEF167
:10488000004FBDE8104018BF704700280CBF491CFE
:1048900020F00100704730D24FEAD42C11F50011FE
:1048A00024F400641BD0B1FA81F20B3AA41AA41EBE
:1048B000D2F12003914030FA03F31943904001EB09
:1048C000CC71002C01EB0451BDE81040A8BF70472B
:1048D00001F1C0414FF0000001F000417047B0FA13
:1048E00080F310FA03F100D110BDE41A173C48051B
:1048F000C90AE4E701EB045110BD491001EB045172
:10490000BDE810404FEA300002E04FF00001704770
:104910004A0008BF0042F8D0B2F5001F28BF704718
:1049200001F000414FF0000070479EEA445F07D05D
:1049300011EA5E0FBDE8104004BF0021002070475F
:10494000BDE8104070B5FFF789FE00BF40DFF63EBE
:1049500083F00041104670470000E0FF43004FEA3B
:10496000D30C4FEA3C0C43401FBF40070CF1605191
:1049700013F0FE4F70471CF0006F03D100200CF0C5
:10498000004170470CF0004343EA507010B540EA14
:10499000CC0000F00EF800BF000000924FEA0001CA
:1049A000FFF7AABE4FF000414FF00000A1F5002133
:1049B00070470EF1020E2EF0030E5EF8044B2442F7
:1049C00004D44FEA4102B2F17F4F11D84FEA4003BD
:1049D000B3F17F4F0CD80ED14FEAD07CB2F17F4FAC
:1049E0000CEB4C0C0CF1020C08BF4CEBD17C04E03E
:1049F0004FF0080C01E04FEAD17C0CEB4C0324FA99
:104A000003F404F00704B4F1040C06D20EEB840C9A
:104A1000BDE810404CF0010C6047DFE80CF00708DF
:104A200002024FF00040A0F5800010BD0846420091
:104A300018BFD2F1807288BF00F0004010BD4FF067
:104A40004070E1EE100A7047FF2141EAD050C005E6
:104A50007047000000000000000001020304060788
:104A60000809000000000102030400008C4A00084D
:104A70000000002014000000E8010008A04A00081F
:104A800014000020A4070000040200080000000039
:104A90000000000010000000010000000024F400ED
:04000005080001AD41
:00000001FF
